#ifndef MOCK_BLOCK_RESPONSE
#define MOCK_BLOCK_RESPONSE

static int mock_block_response_len = 3841;
static char *mock_block_response = "[{\"jsonrpc\":\"2.0\",\"id\":1,\"result\":{\"author\":\"0x52bc44d5378309ee2abf1539bf71de1b7d7be3b5\",\"difficulty\":\"0x8b950ceca4254\",\"extraData\":\"0x6e616e6f706f6f6c2e6f7267\",\"gasLimit\":\"0x7a121d\",\"gasUsed\":\"0xe9ae\",\"hash\":\"0x4c45aaaf983de4bd6cd81fb0a63f93d1eed148242e1a08fe477d4803d9181372\",\"logsBloom\":\"0x00000000000000000000000000000000000000000000000000000000000000000000000000000000000000000000000000000000000000001000000000000000000000000000000000000000000000000000000000000000000000000000000000000000020000000001000000000800000000000000000000000120000000000000000000000000000000000000000000000000004000000000000000001000000000020000000000000000000000000000080000000020000000000000000000000000000000000001000001000000000000000000000000000000010020000000000000000000000000000000000000000000000000000000000000000000\",\"miner\":\"0x52bc44d5378309ee2abf1539bf71de1b7d7be3b5\",\"mixHash\":\"0x405c9e881cc7bf6134417237c45e0d33595223fd0353249d67a6262ceff08cb0\",\"nonce\":\"0x26c1ba600a013de1\",\"number\":\"0x6a5c56\",\"parentHash\":\"0x7e9da34b60cc2321882003cdca2c739e6de36742edb924d33d0cf2fe86439b6f\",\"receiptsRoot\":\"0xa0e17296e0f8bae1ab29e30dad46a9c6f932c3fde21dd4c127e0066c6782358e\",\"sealFields\":[\"0xa0405c9e881cc7bf6134417237c45e0d33595223fd0353249d67a6262ceff08cb0\",\"0x8826c1ba600a013de1\"],\"sha3Uncles\":\"0x1dcc4de8dec75d7aab85b567b6ccd41ad312451b948a7413f0a142fd40d49347\",\"size\":\"0x2f7\",\"stateRoot\":\"0xb0989d11f67425090e12f59338b747c54ae00cc9e6b96ad8b0657a9979dfde74\",\"timestamp\":\"0x5c26a3b8\",\"totalDifficulty\":\"0x1cb56ff8426c36f710f\",\"transactions\":[{\"blockHash\":\"0x4c45aaaf983de4bd6cd81fb0a63f93d1eed148242e1a08fe477d4803d9181372\",\"blockNumber\":\"0x6a5c56\",\"chainId\":\"0x1\",\"condition\":null,\"creates\":null,\"from\":\"0x52bc44d5378309ee2abf1539bf71de1b7d7be3b5\",\"gas\":\"0xc350\",\"gasPrice\":\"0x2540be400\",\"hash\":\"0x4e63305a361339aa649dd54292e72b6ce1b67e3e25f0ed083e0e3aba267f6228\",\"input\":\"0x\",\"nonce\":\"0xa633f2\",\"publicKey\":\"0x957027fd3b1695f5e5f44a540836df36b6e17da3a216b20d836f3ecab59353e7147d9269be6cd5049b02d82c54e4246d853bf7b246645cceb23b8ec2219a2655\",\"r\":\"0x10c1ba355405efc3d72bf7fa4c8a669921d02b106fc21cb5990a0c64a80180cf\",\"raw\":\"0xf86f83a633f28502540be40082c350945219467f0582689177e1f6a81aa8137352a715248802c7150324f70ca08026a010c1ba355405efc3d72bf7fa4c8a669921d02b106fc21cb5990a0c64a80180cfa0086b85fc0b506280e2c3de8d75c8db50c9b6697d4189ecc733874c3857f6c736\",\"s\":\"0x86b85fc0b506280e2c3de8d75c8db50c9b6697d4189ecc733874c3857f6c736\",\"standardV\":\"0x1\",\"to\":\"0x5219467f0582689177e1f6a81aa8137352a71524\",\"transactionIndex\":\"0x0\",\"v\":\"0x26\",\"value\":\"0x2c7150324f70ca0\"},{\"blockHash\":\"0x4c45aaaf983de4bd6cd81fb0a63f93d1eed148242e1a08fe477d4803d9181372\",\"blockNumber\":\"0x6a5c56\",\"chainId\":null,\"condition\":null,\"creates\":null,\"from\":\"0x5dcaa1d8d8132e5bf9cf12deccfc0cecf26a780d\",\"gas\":\"0x5208\",\"gasPrice\":\"0x3b9aca000\",\"hash\":\"0xc7a2af47daba6b394ae00c422c3ff35a7bbc37622128d035b78f88758ec273b0\",\"input\":\"0x\",\"nonce\":\"0x2b755\",\"publicKey\":\"0x173ee50d7e956160d7aad0c901d3f39b781c4fb35d7fca8ba65ca57b7eb86c1b9a8d820067a98820c2c068321b5f43a5647e9a4ff93463666de47113c7b9b2bd\",\"r\":\"0xf83cae4b3eb5e7ddb6cf6e630327a3961ae6b7b14bea617057c27688c35689cd\",\"raw\":\"0xf86f8302b7558503b9aca00082520894be4e8d6dc0c0fdda60c74ffea1eb35c218a8d264881f16140a80691800801ba0f83cae4b3eb5e7ddb6cf6e630327a3961ae6b7b14bea617057c27688c35689cda04923b7045bd00abd79b489983e3798ff33d3f5d41b103bbb98d6b26839b3ea93\",\"s\":\"0x4923b7045bd00abd79b489983e3798ff33d3f5d41b103bbb98d6b26839b3ea93\",\"standardV\":\"0x0\",\"to\":\"0xbe4e8d6dc0c0fdda60c74ffea1eb35c218a8d264\",\"transactionIndex\":\"0x1\",\"v\":\"0x1b\",\"value\":\"0x1f16140a80691800\"}],\"transactionsRoot\":\"0xd17b0e676e56fee289c7d9f3134305eb1e98f3c753d291db85718bcd2f40c86e\",\"uncles\":[]},\"in3\":{\"proof\":{\"type\":\"blockProof\",\"signatures\":[]},\"version\":\"2.0.0\",\"currentBlock\":9048574,\"lastValidatorChange\":0,\"lastNodeList\":8669495,\"execTime\":180,\"rpcTime\":179,\"rpcCount\":1}}]";

#endif
